S01000004C43445F346269742E737265636F
S113000045C0000058C0000056C0000054C00000A5
S113001052C0000050C000004EC000004CC00000A0
S11300204AC0000048C0000046C0000044C00000B0
S113003042C0000040C000003EC000003CC00000C0
S11300403AC0000038C0000036C0000034C00000D0
S113005032C0000030C000002EC000002CC00000E0
S11300602AC0000028C0000026C0000024C00000F0
S113007022C0000020C000001EC000001CC0000000
S11300801AC0000018C0000016C0000011241FBED2
S1130090CFEFD0E1DEBFCDBF11E0A0E0B1E0E8EFEB
S11300A0F1E000E00BBF02C007900D92A431B1074C
S11300B0D9F78ED09FC0A4CF88B38F7B88BB089517
S11300C088B38F7788BB88B3806888BB88B38F7701
S11300D088BB8FE39FE10197F1F700C0000008950A
S11300E0CF93C82F85B38F709C2F907F892B85BBAE
S11300F0E7DF25B330E1C39FC0011124922F9F7025
S1130100892B85BBDDDFCF910895CF93C82F88B3AA
S11301108F7D88BBD1DF8C2FE3DFCF910895CF9300
S1130120C82F88B3806288BBC7DF8C2FD9DFCF91FB
S113013008956F70817090E4899F600D1124862F5B
S11301408058E3CF08950F931F93CF938C01C0E0A1
S113015002C0E5DFCF5FF801EC0FF11D8081811152
S1130160F8CFCF911F910F9108958FEF84BB87B380
S1130170806287BB87B3806487BB87B3806887BB93
S11301802FEF89EF90E0215080409040E1F700C0CC
S1130190000083E0BADF8FE19EE40197F1F700C02D
S11301A0000083E0B2DF8FE19EE40197F1F700C025
S11301B0000083E0AADF82E0A8DF88E2A6DF88E00F
S11301C0A4DF81E0A2DF8CE0A0DF86E09ECF08956B
S11301D0CCDF60E070E080E090E0ABDF80E091E0B5
S11301E0B2DF60E070E081E090E0A3DF8AE091E0BC
S10B01F0AADFFFCFF894FFCF52
S11301F8676F6F6420676F6F640042414444204214
S10702084441470022
S9030000FC
