:1000000045C000004BC0000049C0000047C00000D0
:1000100045C0000043C0000041C000003FC00000D8
:100020003DC000003BC0000039C0000037C00000E8
:1000300035C0000033C0000031C000002FC00000F8
:100040002DC000002BC0000029C0000027C0000008
:1000500025C0000023C0000021C000001FC0000018
:100060001DC000001BC0000019C0000017C0000028
:1000700015C0000013C0000011C000000FC0000038
:100080000DC000000BC0000009C0000011241FBEFD
:10009000CFEFD0E1DEBFCDBF02D023C0B1CF87B359
:1000A000806287BB8FB582688FBD8EB58B618EBD38
:1000B00083EC99E097BD86BD82EE94E09BBD8ABD3E
:1000C00080E090E009C09BBD8ABDEFE9FFE0319779
:1000D000F1F700C000000196843CF9E09F0798F317
:0600E000EFCFF894FFCF02
:00000001FF
