S02600004C45445F696E7369646F75747369645F66696C6573657061726174696F6E2E73726563E6
S113000045C000004BC0000049C0000047C00000CC
S113001045C0000043C0000041C000003FC00000D4
S11300203DC000003BC0000039C0000037C00000E4
S113003035C0000033C0000031C000002FC00000F4
S11300402DC000002BC0000029C0000027C0000004
S113005025C0000023C0000021C000001FC0000014
S11300601DC000001BC0000019C0000017C0000024
S113007015C0000013C0000011C000000FC0000034
S11300800DC000000BC0000009C0000011241FBEF9
S1130090CFEFD0E1DEBFCDBF1ED03BC0B1CF8FEFDD
S11300A081BB089582BB089521E030E0F901082E58
S11300B002C0EE0FFF1F0A94E2F747E050E0DA01B6
S11300C0A81BB10902C0220F331FAA95E2F72E2BF9
S11300D0FB0120830895CF93DF931F92CDB7DEB742
S11300E0DEDF81E8898310E011C0BE016F5F7F4FBE
S11300F0812FDADF8981D6DF2FEF83EC99E021505D
S113010080409040E1F700C000001F5F183068F3A2
S1090110EACFF894FFCFD2
S9030000FC
