:1000000045C0000053C0000051C000004FC00000B8
:100010004DC000004BC0000049C0000047C00000B8
:1000200045C0000043C0000041C000003FC00000C8
:100030003DC000003BC0000039C0000037C00000D8
:1000400035C0000033C00000BFC000002FC000005A
:100050002DC000002BC0000029C0000027C00000F8
:1000600025C0000023C0000021C000001FC0000008
:100070001DC000001BC0000019C0000017C0000018
:1000800015C0000013C0000011C0000011241FBEE5
:10009000CFEFD0E1DEBFCDBF21E0A0E0B1E001C0F5
:1000A0001D92A636B207E1F7B6D02CC1A9CF85BB09
:1000B000089588B38F7B88BB089588B38F7788BBFA
:1000C00088B3806888BB88B38F7788BB8FE39FE154
:1000D0000197F1F700C000000895CF93C82F88B3AF
:1000E0008F7D88BBE6DF8C2FE2DFE7DFCF910895BD
:1000F000CF93C82F88B3806288BBDBDF8C2FD7DF1C
:10010000DCDFCF9108956F70817090E4899F600D5E
:100110001124862F8058E1CF08951F93CF93DF934A
:10012000EC0110E006C0FE01E80FF91F8081E0DF5E
:100130001F5F812F90E0FE0101900020E9F73197C9
:10014000EC1BFD0B31978E179F0768F3DF91CF9162
:100150001F910895CF93DF93EA01D5DFCE01DDDF54
:10016000DF91CF9108958FEF84BB87B3806287BB07
:1001700087B3806487BB87B3806887BB2FEF89EF25
:1001800090E0215080409040E1F700C0000088E3FB
:10019000A4DF8FE19EE40197F1F700C0000088E33F
:1001A0009CDF8FE19EE40197F1F700C0000088E337
:1001B00094DF88E392DF88E090DF81E08EDF8CE0DF
:1001C0008CDF86E08ACF08951F920F920FB60F92B0
:1001D00011240BB60F922F933F934F935F936F931E
:1001E0007F938F939F93AF93BF93EF93FF9336D0FB
:1001F000FF91EF91BF91AF919F918F917F916F91FF
:100200005F914F913F912F910F900BBE0F900FBEBA
:100210000F901F90189509D0A6DF58D0FECF80917F
:100220006501089581E091E00895109290008FECAF
:1002300089B98BB182608BB98AB180688AB98AB179
:1002400080618AB98AB188608AB9789408951092D9
:100250006501089581E08093650108959CB19A300D
:1002600081F4E0910001AE2FB0E0AF5FBE4F9C93F0
:10027000EF5FF0E0EF5FFE4F108210920001EACFD7
:10028000089580910001E82FF0E0EF5FFE4F90832A
:100290008F5F8093000108955D9BFECF8CB9089518
:1002A0000F931F93CF93DF938C01C0E0D0E002C087
:1002B000F3DF2196F801EC0FFD1F80818111F8CF4B
:1002C000EBDFDF91CF911F910F910895CF93DF93D3
:1002D000A6DF882359F0BBDFA5DFEC0181E0FDDE5E
:1002E000AE0160E080E036DFCE01DADF2FEF85EA95
:1002F0009EE0215080409040E1F700C00000DF9177
:08030000CF910895F894FFCF9E
:00000001FF
