S014000050726F6A656374315F66616E2E7372656374
S113000045C000004BC0000049C0000047C00000CC
S113001045C0000043C0000041C000003FC00000D4
S11300203DC000003BC0000039C0000037C00000E4
S113003035C0000033C0000031C000002FC00000F4
S11300402DC000002BC0000029C0000027C0000004
S113005025C0000023C0000021C000001FC0000014
S11300601DC000001BC0000019C0000017C0000024
S113007015C0000013C0000011C000000FC0000034
S11300800DC000000BC0000009C0000011241FBEF9
S1130090CFEFD0E1DEBFCDBF77D011C1B1CFFC012E
S11300A093B79E6693BF88E390E0918380836283D5
S11300B027B381E090E002C0880F991F6A95E2F7A8
S11300C0822B87BB08952FEF829FC001112464E621
S11300D070E0CED061BF08952BE330E0FC013183A2
S11300E020838FEF8ABB0895DC01ED91FC91DB0145
S11300F0A40FB11D8C9180830895FC0171836083EA
S113010053834283248381E08583FB01308181E032
S113011090E002C0880F991F2A95E2F78095832307
S113012080830895FC01A281B3818C9121E030E0A9
S1130130048002C0220F331F0A94E2F7282371F4CB
S11301408581813059F42FEF30E792E0215030401F
S11301509040E1F700C0000015820895222381F049
S1130160858181110FC02FEF30E782E021503040AC
S11301708040E1F700C0000081E0858382E00895BB
S113018080E0089580E00895CF93DF93CDB7DEB784
S11301906A970FB6F894DEBF0FBECDBF8DE6898394
S11301A086E08A838BE58B8322E043E650E064E6B5
S11301B070E0CE010496A1DF24E043E650E064E65B
S11301C070E0CE010A9699DF23E043E650E064E64E
S11301D070E0CE01409691DF64E0CE0148965FDF87
S11301E0CE01469679DF40E0BE016F5F7F4FCE01BE
S11301F046967ADFCE01049695DF813051F440E0D3
S1130200BE016F5F7F4FCE0146966EDF80E05BDFFD
S113021028C0CE010A9686DF8130A9F441E0BE01F0
S11302206F5F7F4FCE0146965FDF84E64CDF2FEF92
S113023080E792E0215080409040E1F700C0000048
S113024082E341DF0EC0CE0140966CDF813049F479
S113025042E0BE016F5F7F4FCE01469645DF84E6E4
S113026032DF8FE39CE90197F1F700C00000C2CFB1
S113027097FB072E16F4009406D077FD08D00BD018
S113028007FC05D03EF4909581959F4F0895709595
S113029061957F4F0895AA1BBB1B51E107C0AA1F9C
S11302A0BB1FA617B70710F0A61BB70B881F991F13
S11302B05A95A9F780959095BC01CD010895F894BD
S10502C0FFCF6A
S9030000FC
