S01C00005357495443485F464E445F7072616374696365312E7372656324
S113000045C0000058C0000056C0000054C00000A5
S113001052C0000050C000004EC000004CC00000A0
S11300204AC0000048C0000046C0000044C00000B0
S113003042C0000040C000003EC000003CC00000C0
S11300403AC0000038C0000036C0000034C00000D0
S113005032C0000030C000002EC000002CC00000E0
S11300602AC0000028C0000026C0000024C00000F0
S113007022C0000020C000001EC000001CC0000000
S11300801AC0000018C0000016C0000011241FBED2
S1130090CFEFD0E1DEBFCDBF11E0A0E0B1E0E4E6F8
S11300A0F1E000E00BBF02C007900D92AA30B10747
S11300B0D9F702D055C0A4CFCF93DF93CDB7DEB725
S11300C02A970FB6F894DEBF0FBECDBF8AE0E0E0FA
S11300D0F1E0DE01119601900D928A95E1F78FEF20
S11300E08ABB80E090E0E1E0F0E0EC0FFD1FE80F58
S11300F0F91F20812BBBAC014F5F5F4F9A01ADEC20
S1130100BCEC1FD09695879596958795969587957F
S11301109C01220F331F880F991F880F991F880F86
S1130120991F820F931F9A01281B390BC9013FEFB6
S113013049E628E1315040402040E1F700C000008A
S1130140D2CFA29FB001B39FC001A39F700D811DA8
S11301501124911DB29F700D811D1124911D0895CC
S1070160F894FFCF3D
S10D01643F065B4F666D7D277F6741
S9030000FC
